{
  "contractName": "Faucet",
  "abi": [
    {
      "inputs": [
        {
          "internalType": "address",
          "name": "",
          "type": "address"
        }
      ],
      "name": "funders",
      "outputs": [
        {
          "internalType": "bool",
          "name": "",
          "type": "bool"
        }
      ],
      "stateMutability": "view",
      "type": "function",
      "constant": true
    },
    {
      "inputs": [
        {
          "internalType": "uint256",
          "name": "",
          "type": "uint256"
        }
      ],
      "name": "lutFunders",
      "outputs": [
        {
          "internalType": "address",
          "name": "",
          "type": "address"
        }
      ],
      "stateMutability": "view",
      "type": "function",
      "constant": true
    },
    {
      "inputs": [],
      "name": "numOfFunders",
      "outputs": [
        {
          "internalType": "uint256",
          "name": "",
          "type": "uint256"
        }
      ],
      "stateMutability": "view",
      "type": "function",
      "constant": true
    },
    {
      "inputs": [],
      "name": "owner",
      "outputs": [
        {
          "internalType": "address",
          "name": "",
          "type": "address"
        }
      ],
      "stateMutability": "view",
      "type": "function",
      "constant": true
    },
    {
      "inputs": [],
      "name": "test3",
      "outputs": [
        {
          "internalType": "uint256",
          "name": "",
          "type": "uint256"
        }
      ],
      "stateMutability": "pure",
      "type": "function",
      "constant": true
    },
    {
      "inputs": [],
      "name": "testNum",
      "outputs": [
        {
          "internalType": "uint256",
          "name": "",
          "type": "uint256"
        }
      ],
      "stateMutability": "view",
      "type": "function",
      "constant": true
    },
    {
      "stateMutability": "payable",
      "type": "receive",
      "payable": true
    },
    {
      "inputs": [],
      "name": "emitLog",
      "outputs": [
        {
          "internalType": "bytes32",
          "name": "",
          "type": "bytes32"
        }
      ],
      "stateMutability": "pure",
      "type": "function",
      "constant": true
    },
    {
      "inputs": [],
      "name": "addFunds",
      "outputs": [],
      "stateMutability": "payable",
      "type": "function",
      "payable": true
    },
    {
      "inputs": [
        {
          "internalType": "uint256",
          "name": "withdrawAmount",
          "type": "uint256"
        }
      ],
      "name": "withdraw",
      "outputs": [],
      "stateMutability": "nonpayable",
      "type": "function"
    },
    {
      "inputs": [],
      "name": "getAllFunders",
      "outputs": [
        {
          "internalType": "address[]",
          "name": "",
          "type": "address[]"
        }
      ],
      "stateMutability": "view",
      "type": "function",
      "constant": true
    },
    {
      "inputs": [],
      "name": "test1",
      "outputs": [],
      "stateMutability": "nonpayable",
      "type": "function"
    },
    {
      "inputs": [],
      "name": "test2",
      "outputs": [],
      "stateMutability": "nonpayable",
      "type": "function"
    },
    {
      "inputs": [
        {
          "internalType": "uint8",
          "name": "index",
          "type": "uint8"
        }
      ],
      "name": "getFunderAtIndex",
      "outputs": [
        {
          "internalType": "address",
          "name": "",
          "type": "address"
        }
      ],
      "stateMutability": "view",
      "type": "function",
      "constant": true
    }
  ],
  "bytecode": "0x608060405234801561001057600080fd5b50336000806101000a81548173ffffffffffffffffffffffffffffffffffffffff021916908373ffffffffffffffffffffffffffffffffffffffff1602179055506064600181905550610cc6806100686000396000f3fe6080604052600436106100c65760003560e01c80636b59084d1161007f578063a26759cb11610059578063a26759cb14610261578063ae28f1ed1461026b578063af7f2c9b14610296578063f42c13bf146102c1576100cd565b80636b59084d146101f45780636fbbb55d1461020b5780638da5cb5b14610236576100cd565b8063031b3677146100d25780630a8e8e011461010f5780630a93cf331461013a5780631f8947ea146101775780632e1a7d4d146101b457806366e41cb7146101dd576100cd565b366100cd57005b600080fd5b3480156100de57600080fd5b506100f960048036038101906100f4919061083c565b6102ec565b60405161010691906109fb565b60405180910390f35b34801561011b57600080fd5b5061012461030c565b6040516101319190610a71565b60405180910390f35b34801561014657600080fd5b50610161600480360381019061015c919061088e565b610315565b60405161016e91906109be565b60405180910390f35b34801561018357600080fd5b5061019e60048036038101906101999190610865565b610355565b6040516101ab91906109be565b60405180910390f35b3480156101c057600080fd5b506101db60048036038101906101d69190610865565b610388565b005b3480156101e957600080fd5b506101f261041f565b005b34801561020057600080fd5b506102096104af565b005b34801561021757600080fd5b5061022061053f565b60405161022d91906109d9565b60405180910390f35b34801561024257600080fd5b5061024b610685565b60405161025891906109be565b60405180910390f35b6102696106a9565b005b34801561027757600080fd5b506102806107c9565b60405161028d9190610a71565b60405180910390f35b3480156102a257600080fd5b506102ab6107cf565b6040516102b89190610a71565b60405180910390f35b3480156102cd57600080fd5b506102d66107d5565b6040516102e39190610a16565b60405180910390f35b60036020528060005260406000206000915054906101000a900460ff1681565b60006064905090565b6000600460008360ff16815260200190815260200160002060009054906101000a900473ffffffffffffffffffffffffffffffffffffffff169050919050565b60046020528060005260406000206000915054906101000a900473ffffffffffffffffffffffffffffffffffffffff1681565b80670de0b6b3a76400008111156103d4576040517f08c379a00000000000000000000000000000000000000000000000000000000081526004016103cb90610a51565b60405180910390fd5b3373ffffffffffffffffffffffffffffffffffffffff166108fc839081150290604051600060405180830381858888f1935050505015801561041a573d6000803e3d6000fd5b505050565b60008054906101000a900473ffffffffffffffffffffffffffffffffffffffff1673ffffffffffffffffffffffffffffffffffffffff163373ffffffffffffffffffffffffffffffffffffffff16146104ad576040517f08c379a00000000000000000000000000000000000000000000000000000000081526004016104a490610a31565b60405180910390fd5b565b60008054906101000a900473ffffffffffffffffffffffffffffffffffffffff1673ffffffffffffffffffffffffffffffffffffffff163373ffffffffffffffffffffffffffffffffffffffff161461053d576040517f08c379a000000000000000000000000000000000000000000000000000000000815260040161053490610a31565b60405180910390fd5b565b6060600060025467ffffffffffffffff811115610585577f4e487b7100000000000000000000000000000000000000000000000000000000600052604160045260246000fd5b6040519080825280602002602001820160405280156105b35781602001602082028036833780820191505090505b50905060005b60025481101561067d576004600082815260200190815260200160002060009054906101000a900473ffffffffffffffffffffffffffffffffffffffff16828281518110610630577f4e487b7100000000000000000000000000000000000000000000000000000000600052603260045260246000fd5b602002602001019073ffffffffffffffffffffffffffffffffffffffff16908173ffffffffffffffffffffffffffffffffffffffff1681525050808061067590610b35565b9150506105b9565b508091505090565b60008054906101000a900473ffffffffffffffffffffffffffffffffffffffff1681565b6000339050600360008273ffffffffffffffffffffffffffffffffffffffff1673ffffffffffffffffffffffffffffffffffffffff16815260200190815260200160002060009054906101000a900460ff166107c65760006002600081548092919061071490610b35565b9190505590506001600360008473ffffffffffffffffffffffffffffffffffffffff1673ffffffffffffffffffffffffffffffffffffffff16815260200190815260200160002060006101000a81548160ff021916908315150217905550816004600083815260200190815260200160002060006101000a81548173ffffffffffffffffffffffffffffffffffffffff021916908373ffffffffffffffffffffffffffffffffffffffff160217905550505b50565b60015481565b60025481565b60007f68656c6c6f20776f726c64000000000000000000000000000000000000000000905090565b60008135905061080c81610c4b565b92915050565b60008135905061082181610c62565b92915050565b60008135905061083681610c79565b92915050565b60006020828403121561084e57600080fd5b600061085c848285016107fd565b91505092915050565b60006020828403121561087757600080fd5b600061088584828501610812565b91505092915050565b6000602082840312156108a057600080fd5b60006108ae84828501610827565b91505092915050565b60006108c383836108cf565b60208301905092915050565b6108d881610ad6565b82525050565b6108e781610ad6565b82525050565b60006108f882610a9c565b6109028185610ab4565b935061090d83610a8c565b8060005b8381101561093e57815161092588826108b7565b975061093083610aa7565b925050600181019050610911565b5085935050505092915050565b61095481610ae8565b82525050565b61096381610af4565b82525050565b6000610976602183610ac5565b915061098182610bad565b604082019050919050565b6000610999602183610ac5565b91506109a482610bfc565b604082019050919050565b6109b881610b1e565b82525050565b60006020820190506109d360008301846108de565b92915050565b600060208201905081810360008301526109f381846108ed565b905092915050565b6000602082019050610a10600083018461094b565b92915050565b6000602082019050610a2b600083018461095a565b92915050565b60006020820190508181036000830152610a4a81610969565b9050919050565b60006020820190508181036000830152610a6a8161098c565b9050919050565b6000602082019050610a8660008301846109af565b92915050565b6000819050602082019050919050565b600081519050919050565b6000602082019050919050565b600082825260208201905092915050565b600082825260208201905092915050565b6000610ae182610afe565b9050919050565b60008115159050919050565b6000819050919050565b600073ffffffffffffffffffffffffffffffffffffffff82169050919050565b6000819050919050565b600060ff82169050919050565b6000610b4082610b1e565b91507fffffffffffffffffffffffffffffffffffffffffffffffffffffffffffffffff821415610b7357610b72610b7e565b5b600182019050919050565b7f4e487b7100000000000000000000000000000000000000000000000000000000600052601160045260246000fd5b7f6f6e6c79206f776e65722063616e2063616c6c20746869732066756e6374696f60008201527f6e00000000000000000000000000000000000000000000000000000000000000602082015250565b7f63616e6e6f74207769746864726177206d6f7265207468616e2031206574686560008201527f7200000000000000000000000000000000000000000000000000000000000000602082015250565b610c5481610ad6565b8114610c5f57600080fd5b50565b610c6b81610b1e565b8114610c7657600080fd5b50565b610c8281610b28565b8114610c8d57600080fd5b5056fea264697066735822122015ba9805f316fc2216d87e2210ecb53829362c5019ebac7f05cdef39174c0ea264736f6c63430008040033",
  "immutableReferences": {},
  "source": "// SPDX-License-Identifier: MIT\npragma solidity >=0.4.22 < 0.9.0;\nimport \"./Owned.sol\";\nimport \"./Loggers.sol\";\nimport \"./IFaucet.sol\";\n\ncontract Faucet is Owned, Logger, IFaucet {\n   uint public numOfFunders; \n   mapping(address => bool) public funders;\n   mapping(uint => address) public lutFunders;\n\n   modifier limitWithdraw(uint withdrawAmount) {\n        require(\n            withdrawAmount <= 1000000000000000000,\n            \"cannot withdraw more than 1 ether\"\n            );\n            _; \n   }\n   receive () external payable {} \n\n   function emitLog() public override pure returns(bytes32){\n       return \"hello world\";\n   }\n\n   function addFunds() external override payable {\n      address funder = msg.sender;\n      if (!funders[funder]) {\n          uint index = numOfFunders++;\n          funders[funder] = true;\n          lutFunders[index] = funder;\n      }\n   }\n\n   function withdraw(uint withdrawAmount) external override  limitWithdraw(withdrawAmount) {\n       payable(msg.sender).transfer(withdrawAmount);\n       \n   }\n\n   function getAllFunders() external view returns(address[] memory) {\n       address[] memory _funders = new address[](numOfFunders);\n\n       for (uint i = 0; i < numOfFunders; i++) {\n           _funders[i] = lutFunders[i];\n       }\n       return _funders;\n   }\n\n   function test1() external onlyOwner{}\n   function test2() external onlyOwner{}\n\n   function getFunderAtIndex(uint8 index) external view returns(address) {\n       return lutFunders[index];\n   }\n}\n\n// const instance = await Faucet.deployed()\n\n// instance.addFunds({from: accounts[0], value: \"2000000000000000000\"})\n// instance.addFunds({from: accounts[1], value: \"2000000000000000000\"})\n// instance.addFunds({from: accounts[2], value: \"2\"})\n\n// instance.withdraw(\"500000000000000000\", {from: accounts[1]})\n\n// instance.getAllFunders()\n// instance.getFunderAtIndex(0)",
  "sourcePath": "/Users/erdal/blockchain/faucet/contracts/FaucetContract.sol",
  "compiler": {
    "name": "solc",
    "version": "0.8.4+commit.c7e474f2.Emscripten.clang"
  },
  "schemaVersion": "3.4.5",
  "updatedAt": "2022-02-22T16:39:47.690Z",
  "networkType": "ethereum",
  "devdoc": {
    "kind": "dev",
    "methods": {},
    "version": 1
  },
  "userdoc": {
    "kind": "user",
    "methods": {},
    "version": 1
  }
}